:020000040000FA
:0600000086EF10F0120073
:020006001200E6
:060008003EEF10F01200B3
:02000E000300ED
:10001000D91C00009D00000001000000C921000063
:100020009B00000002000000BA21000080000000D8
:040030000F000000BD
:0C00340056EC05F0FB0EDBCFF3FFDB0603
:10004000F35000090AE0A4EC05F0FA0E0FEC06F0FC
:10005000F3E1151CF1E1010E01D0000E85EF05F072
:1000600056EC05F03B0EE12402E3E168E652E16E56
:10007000010EDB6A020EDB6AF90EDBCFF6FFFA0E29
:10008000DBCFF7FFFB0EDBCFF8FF0800F550DF6E8C
:10009000DF5002E1A9EF04F0250EDF5C02E09CEFE7
:1000A00004F0030EDB6A040EDB6A050EDB6A060E43
:1000B000DB6A070EDB6ABEEC04F02D0EDF5C0CE0A1
:1000C0002B0EDF5C09E0200EDF5C06E0230EDF5C18
:1000D00003E0300EDF5C1AE1DF50300A14E0130A4F
:1000E0000FE0030A0AE00B0A05E0060AE4E1030E4A
:1000F000DB80E1D7030EDB82DED7030EDB84DBD7A8
:10010000030EDB86D8D7030EDB88D5D72A0EDF5C3B
:100110001BE1BAEC04F008EC05F010E0030EDB8004
:1001200008680968130EDBCF0DF0140EDBCF0EF05C
:1001300035EC0FF0040E06C0DBFF03D0130EF1EC1C
:1001400004F0BEEC04F00BD0090EDB6A5FEC05F0A6
:1001500003E0D3EC05F0FAD7090EF1EC04F0030E3E
:10016000DBB0DB982E0EDF5C1BE1BEEC04F02A0E48
:10017000DF5C0BE1BAEC04F008EC05F003E1130ED0
:1001800043EC05F0BEEC04F00BD0090EDB6A5FEC2B
:1001900005F003E0D3EC05F0FAD7090E43EC05F0C7
:1001A000680EDF5C07E1BEEC04F0680EDF5C1DE169
:1001B000030E18D0740EDF5C17E07A0EDF5C14E0DB
:1001C000480EDF5C06E0540EDF5C03E05A0EDF5C95
:1001D00002E1020E07D06C0EDF5C03E06A0EDF5C0A
:1001E00004E1010E96EC05F0C9DBDF506E0A01E177
:1001F0007FD31E0A01E192D1200A01E18FD13F0A8B
:1002000001E149D11A0A01E146D10D0A01E143D1C8
:10021000200A01E140D13A0A01E13DD1200A01E181
:100220003AD1260A01E135D10D0A01E132D11A0A8B
:1002300001E1D9D0200A4AE0300A1FE0460A0EE068
:10024000250A01E083D3D950F90FE96EFF0EDA20B9
:10025000EA6E010EEE5E000EEE5AEE5AA4EC05F0C8
:10026000250EE66E95DB03E1151C01E169D3A0ECD8
:1002700005F001E26BD3DB2A69D3080EDB6A040EBA
:10028000DB50010806E2040EDB0468EC05F0DB50ED
:100290008BDB080EDB5009E0030EDB50010B05E1A0
:1002A00072DB01E04DD3080EDB6A64DBEFCFDFFFCA
:1002B00018EC06F003E1151C01E142D3A0EC05F0B7
:1002C00001E3DB2A60DB01E141D33AD3070EDB50C7
:1002D00002080FE1E4EC05F0030EABEC05F00E0EA6
:1002E000EECFDBFF0F0EEECFDBFF100EEECFDBFF0E
:1002F00020D0F70EDBCF17F0F80EDBCF18F0020E90
:10030000175E000E185AF70E17C0DBFFF80E18C064
:10031000DBFF17C0E9FF18C0EAFF9BEC05F0166A87
:100320000E0E14C0DBFF0F0E15C0DBFF100E16C043
:10033000DBFF0E0EDBCFE6FF0F0EDBCFE6FF100E6E
:10034000DBCFE6FFB2EC0EF0E552E552E552130EBC
:1003500007C0DBFF140E08C0DBFF060EDB5005E014
:10036000130EDFEC05F001E26ADB03EC06F002E2BB
:10037000130E37DBC6EC05F006E0040EDFEC05F0EB
:1003800002E2050E2EDB030EDBB005D0FCDA01E045
:10039000D7D2080EDB6A090EDB6A0E0EDBCFF6FF42
:1003A0000F0EDBCFF7FF100EDBCFF8FF0800F55084
:1003B000DF6EDF5014E009EC06F011E218EC06F0F5
:1003C00003E1151C01E1BCD2BBDB01E3DB2A090E12
:1003D000DB2AD9500E0FE96E000ECBDBE7D7D3DA5C
:1003E00001E1B4D2ADD2C6DA110EEECFDBFF120EB0
:1003F000EDCFDBFF110EDBCFE6FF120EDBCFE6FF0A
:10040000A4EC0EF0E552E552130EF3CFDBFF140E11
:10041000F4CFDBFF060EDB5004E0130ED0DB01E26D
:100420000EDB03EC06F002E2130EDBDAAFDB05E0D5
:10043000040EC5DB02E2050ED4DA030EDBB005D0F4
:10044000A2DA01E07DD2080EDB6A090EDB6A110E2A
:10045000DBCFE9FF120EDBCFEAFFEFCFDFFFDF508C
:1004600014E0D7DB12E2E4DB03E1151C01E168D202
:1004700067DB01E3DB2A090EDB2A110EDB2ADBCF67
:10048000E9FF120EE8E3DB2AE6D77DDA01E15ED26E
:1004900057D2030EDB8E070EDB0410E195DB040E52
:1004A0005ADB0A0EEECFDBFF0B0EEECFDBFF0C0E9E
:1004B000EECFDBFF0D0EEECFDBFF6CD0070EDB5077
:1004C00003082CE1030EDBAE0DD0B2DA020E76DAB1
:1004D000EFCF14F0156A166A176A14AE39D0156892
:1004E000166835D0F70EDBCF15F0F80EDBCF16F01F
:1004F000020E155E000E165AF70E15C0DBFFF80E41
:1005000016C0DBFF15C0E9FF16C0EAFFEFCF14F0FD
:100510000A0E14C0DBFF0B0EDB6A38D0070EDB506F
:10052000020809E1030EDBAE04D059DB16AE10D091
:100530000ED055DB0DD0030EDBAE12D079DA020EF1
:100540003DDAF9DA166A176A15AE02D0166817682E
:10055000E2DA0C0E16C0DBFF0D0E17C0DBFF1AD05F
:10056000F70EDBCF16F0F80EDBCF17F0020E165E9B
:10057000000E175AF70E16C0DBFFF80E17C0DBFF90
:1005800016C0E9FF17C0EAFFD6DAC5DA0C0EDB6A3F
:100590000D0EDB6A060EDB5005E1010EF36E050E53
:1005A000F3CFDBFF150EDB6A160EDB6AD950370F6F
:1005B000146E000EDA20156E390E14C0DBFF3A0EF1
:1005C00015C0DBFF380EDB6A080EDB6A0A0EAEDAF6
:1005D000DF50780A12E0200A10E0280A0CE0200A16
:1005E0000AE03F0A06E00D0A02E0200A08E1020ED6
:1005F00005D0080E03D0080EDF26100E97DA030E82
:10060000DBBE02D0DB92DB94DB50800B24E08ADA85
:10061000D890030EEB50000A08E6000EEE5C000EC8
:10062000EE58000EEE58000EEE5815E213DA0B6885
:100630000C680D680E68FDEC0DF00A0E02C0DBFFC1
:100640000B0E03C0DBFF0C0E04C0DBFF0D0E05C05C
:10065000DBFF2D0E08D0030EDBA202D02B0E03D041
:10066000DBA408D0200EF36E170EF3CFDBFF150EC0
:10067000DB2A02D0170EDB6A050EDB5003E1B7D987
:1006800001E189D0860E146E210E156E000E166ED5
:10069000070EDBCF17F0186A196A1A6A17C00BF039
:1006A00018C00CF019C00DF01AC00EF0D3D962ECCE
:1006B0000FF014500224F36E15500320F46E165000
:1006C0000420F86EF4CFF7FFF3CFF6FF0800090E11
:1006D000F5CFDBFF580EDF5C0FE1610EF36E090E04
:1006E0007BD90AE3200E146E090EDBCFE7FF14500E
:1006F000E75E090EE7CFDBFF070EDBCF14F0156ACC
:10070000166A176A0FDA14C00BF015C00CF016C089
:100710000DF017C00EF0EECF06F0EECF07F0EECFE3
:1007200008F0EFCF09F062EC0FF009C0EDFF08C050
:10073000EDFF07C0EDFF06C0EFFF390EDBCFE9FF8D
:10074000DB063A0EDBCFEAFF01E2DB06090EDBCF68
:10075000EFFF150EDB2A4BD995E1030EDBA61DD06A
:100760006F0EDF5C06E1C1D918E3150EDB285BDAFA
:1007700014D0780EDF5C09E0580EDF5C06E0620EF4
:10078000DF5C03E0420EDF5C08E1020EF36E160E42
:10079000F3CFDBFF02D0150EDB6A030EDB50100B2C
:1007A0000EE0040EDBCF14F0050EDB50D88014549D
:1007B00006E2060EDB5003E1040EDB5034DA95D975
:1007C0000AE2050EDBCFE7FF150EDB50E75E050EF4
:1007D000E7CFDBFF02D0050EDB6A040EDBCF14F09F
:1007E000160E45D9D880145414E2160EDBCFE6FF5E
:1007F000150EDBCFE6FF040EDBCFE6FF050EDB5068
:10080000E552E75CE552D880E754E552D880E754DA
:100810005FD9030EDB50010B0BE1080EDB5008E043
:10082000B2D801E08DD0080EDB50BED8080EDB6ACE
:10083000170EDB5007E088D9170EF1D903E1151C1C
:1008400001E17ED0160EDB5016E07ED9300EE66E4A
:100850009FD802E1151C74E077D9DFCFE6FF80EC6A
:100860000DF0E552E552E552F4CF15F00001F31C0E
:1008700002E1151C65E0050EDBCF14F0160EDB500F
:10088000D880145409E2050EDBCFE7FF160EDB50CB
:10089000E75E050EE7CFDBFF300EE66E050ECBD927
:1008A0004FE1390EDB2ADBCFE9FF3A0E01E3DB2A09
:1008B000DBCFEAFF090EEFCFDBFFDB500EE044D9C0
:1008C000090EADD902E1151C3BE0390EDB2ADBCF66
:1008D000E9FF3A0EEDE3DB2AEBD755D831E1160EEE
:1008E000DBCFE6FF080EC3D8E552E7245DD82ED053
:1008F000070EDB50030A1CE0010A14E0030A07E0BC
:100900007BD9DBCFEEFF020EDBCFEDFF1FD0F5D89A
:10091000196A17AE02D0186819682CD8BCD819C04B
:10092000EEFF14D0EAD817BE186824D8B4D80ED079
:1009300063D9DBCFEFFF0AD07BD905E1151C03E1BA
:10094000F368F46810D0FCD801E3DB2A79D945EFCD
:1009500000F0010EDBCF14F0020EDBCF15F014C057
:10096000F3FF15C0F4FF3B0EE15C02E2E16AE552E1
:10097000E16ECBD029D9020EABEF05F061D90800AA
:10098000F550DF6E1200200EE66E080E1BEF06F02B
:1009900080EC0DF0E552E552E552F3CF14F0F4CFC0
:1009A00015F00001F31C1200146E156AD950010FE6
:1009B0004DD91450EE261550ED221200185E000E8F
:1009C000195AF70E18C0DBFFF80E19C0DBFF18C06C
:1009D000E9FF19C0EAFF1200DBCFF4FFF350F45C2B
:1009E0001200DB50E76E040EE7CFDBFF12000A0EA9
:1009F000DBCF14F00B0EDBCF15F00C0EDBCF16F0B7
:100A00000D0EDBCF17F01450151016101710120032
:100A1000130EEECFDBFF140EEDCFDBFF130EDBCF9B
:100A200014F0140EDBCF15F00001800E1514120027
:100A3000F70EDBCF18F0F80EDBCF19F01200050E21
:100A4000DB50E66ED950130F01D9E552E750EE6E38
:100A5000ED6A12000A0EDBCF06F00B0EDBCF07F0BB
:100A60000C0EDBCF08F00D0EDBCF09F01200DBCF50
:100A7000E6FF150EDBCFE6FF050EDB50E552E7245F
:100A8000E552E7241200DB50CED8010EF36E060EBD
:100A9000F3CFDBFF1200EE50EFCFEAFFE96E16C096
:100AA000EEFF17C0EEFF18C0EEFF1200D9CFE6FF31
:100AB000DACFE6FFE1CFD9FFE2CFDAFF1200DFCFD6
:100AC000E6FFE66A54EC10F0E552E552F3501200EE
:100AD000E76E080EE7CFDBFF1200EECF14F0EECF8B
:100AE00015F0EFCF16F0176A1200050EDBCF14F0E9
:100AF000150EDB50D88014541200010EDBCF16F017
:100B0000020EDBCF17F0186A1200E552E5CFDAFFCC
:100B1000E7CFD9FF12000A0E14C0DBFF0B0E15C081
:100B2000DBFF1200D9500A0F26EF06F0F36E070E16
:100B3000F3CFDBFF1200EECF14F0EFCF15F0120071
:100B4000010EDB2A020E1200FC0EDBCFE6FFFD0ECB
:100B5000DBCFE6FF1200145E000E155AF70E14C02C
:100B6000DBFFF80E15C0DBFF14C0E9FF15C0EAFF7C
:100B70001200DA20EA6EEF2AEECFF6FF000EEF2227
:100B8000EECFF7FFEF22EECFF8FF1200040EDBCF1F
:100B9000E6FF130EDB50E552E75C9ADFDB5004DF23
:100BA000060EDB501200090EDB500A0DF350DF2455
:100BB000D00FE76E090EE7CFDBFFBEEF04F0DB508E
:100BC000F36E050EECEF04F0F70EDBCF14F0F80E29
:100BD000DBCF15F01200DFCFE6FFC8EF04F028DF0F
:100BE000030EECDE6DEF05F01AEC00F0E552E55275
:100BF000E552E55200091200BDDEEE50EFCFEAFFEC
:100C0000E96E010E1200130EDB50F36E040EECEFD2
:100C100004F0040EDB50F36E090EECEF04F0DBCFB2
:100C2000E6FFC8EF04F0E76E050EE7CFDBFF12002A
:100C30008BDFEBEF05F0DBCFE6FF86DFF4EF05F0AF
:100C4000D950F90FE96EFF0EB9EF05F0E96E000E0D
:060C5000DA20EA6E12003A
:0A0C5600D08EF29EF29C11EC0AF021
:100C600059D8100EE66EE66A3C0EE66E3BEC0DF0CF
:100C7000E552E552E5525ED8836AAEEC10F0000909
:100C800002E093D911D0CCEC10F0000902E00ADAAE
:100C90000BD0A2EC10F0000902E018DA05D0FCAE8F
:100CA00002D026DA01D037DA38D83ED840D845D835
:100CB00044DA0A0EE66E0C0EE66EA70EE66E6DECDA
:100CC0000EF0E552E552E552829A84908290849229
:100CD000060EE66EDDEC0FF0E552C70EE66EF8ECA0
:100CE0000FF0E552C70EE66EC2EC0DF0E552000EB5
:100CF000E66EE66A06EC0FF0E552E552000EE66E8F
:100D0000E66AD7EC0EF0E552E5520001996B020E4F
:100D10009A6F1200949C948E1200949094929494E2
:100D200094969498949A1200EF0E926E1200C00E50
:100D3000936E1200600E956E1200966A1200D9CF63
:100D4000E6FFE1CFD9FF030EE126010EF36E020E9E
:100D5000F3CFDBFFFB0EDBCF16F0FC0EDBCF17F083
:100D6000FD0EDBCFE9FFEA6AE9BEEA68D890E93612
:100D7000EA36810EE926000EEA221650EE24146EA1
:100D80001750EE2014C0DEFFDD6EDECF14F0DDCF95
:100D900015F00001800E15140EE0020EDB6A0868E3
:100DA0000968DECF0DF0DDCF0EF035EC0FF006C098
:100DB000DEFF07C0DDFFDECF14F0DDCF15F0153408
:100DC00009E214502008030E155404E2200EDE6ED2
:100DD000030EDD6EFE0EDB5015E1DECFE6FFDDCF4C
:100DE000E6FFD7EC0EF0E552E552020EDB5002E1D1
:100DF000829001D082808250010B02E0849216D052
:100E0000848214D0DECFE6FFDDCFE6FF06EC0FF0E4
:100E1000E552E552020EDB5002E1829A01D0828A4D
:100E20008250200B02E0849001D08480030EE15CAC
:100E300002E2E16AE552E16EE552E7CFD9FF120026
:100E4000200EE66E030EE66E06EC0FF0E552E5525C
:100E5000200EE66E030EE66ED7EC0EF0E552E5527C
:100E6000849282908490829A1200D9CFE6FFE1CFDB
:100E7000D9FFFE0EDBCFE6FF27EC10F0E552DAECEF
:100E800010F0D2EC10F00009FCE1BAEC10F0E552E1
:100E9000E7CFD9FF1200870EE66EE7DFE552F3CF0A
:100EA00014F0F4CF15F00001F350995DF4509A5905
:100EB00002E3000E01D0010E00018099E8B08089A4
:100EC0008F0EE66ED2DFE552F3CF14F0F4CF15F0BB
:100ED0000001F350995DF4509A5902E3000E01D0DD
:100EE000010E00018097E8B08087970EE66EBDDFA7
:100EF000E552F3CF14F0F4CF15F00001F350995DF3
:100F0000F4509A5902E3000E01D0010E00018095C1
:100F1000E8B080859F0EE66EA8DFE552F3CF14F0AF
:100F2000F4CF15F00001F350995DF4509A5902E3A3
:100F3000000E01D0010E00018093E8B08083A70E5F
:100F4000E66E93DFE552F3CF14F0F4CF15F0000115
:100F5000F350995DF4509A5902E3000E01D0010E4E
:100F600000018091E8B08081120000018051100BD7
:100F700002E0839001D083808051080B02E08392CD
:100F800001D083828051040B02E0839401D08384DA
:100F90008051020B02E0839601D083868051010BC1
:100FA00002E08398120083881200D9CFE6FFE1CFD8
:100FB000D9FF080EE126DE6ADE6ADE6ADD6ADD52EE
:100FC000DD52040EDB6A050EDB6A060EDB6A070ED5
:100FD000DB6AD7EC10F0D30EE66E1C0EE66E000E48
:100FE000E66EEFEC0CF0E552E552E5528390838219
:100FF000838483868388D9CFE9FFDACFEAFF0A0E9C
:10100000EE5C000EEE58000EEE58000EEE5840E278
:101010000400D950040FE96EDACFEAFF300EEE1863
:1010200006E1750EEE1803E1EE5001E1EE5014E119
:10103000040EDB6A050EDB6A060EDB6A070EDB6A4E
:10104000D9CFE9FFDACFEAFFEE2A000EEE22EE2238
:10105000EE228390838211D0D950040FE96EDACF4B
:10106000EAFF980EEE1806E13A0EEE1803E1EE5094
:1010700001E1EE5002E183808392D950040FE96EC2
:10108000DACFEAFFEE2A000EEE22EE22EE22B3D7EE
:10109000080EE15C02E2E16AE552E16EE552E7CF5B
:1010A000D9FF1200D7EC10F0CD0EE66E1C0EE66EE6
:1010B000000EE66EEFEC0CF0E552E552E55283804F
:1010C0008382838483868398BCEF08F0C40EE66E27
:1010D0001C0EE66E000EE66EEFEC0CF0E552E552EB
:1010E000E55283908382839483868388BCEF08F0E3
:1010F000FC9EBB0EE66E1C0EE66E000EE66EEFEC7E
:101100000CF0E552E552E552839083828394838606
:101110008398BCEF08F0B10EE66E1C0EE66E000E72
:10112000E66EEFEC0CF0E552E552E55283908382D7
:10113000839483968398BCEF08F0D08ED288A284E3
:10114000D29ED286D284D282D290A194A084F28EF2
:101150001200AA0EE66E1C0EE66E000EE66EEFECB6
:101160000CF0E552E552E552E5DD839083828384FD
:1011700083968388BCEF08F0D9CFE6FFE1CFD9FF93
:10118000040EE126DE6ADE6ADE6ADD6ADD52DD52C9
:101190000400D9CFE9FFDACFEAFF300EEE1806E1FE
:1011A000750EEE1803E1EE5001E1EE5009E1DE6A42
:1011B000DE6ADE6ADD6ADD52DD528390838210D002
:1011C000D9CFE9FFDACFEAFF980EEE1806E13A0E22
:1011D000EE1803E1EE5001E1EE5002E183808392CC
:1011E000D9CFE9FFDACFEAFFEE2A000EEE22EE2297
:1011F000EE22CED7040EE15C02E2E16AE552E16E36
:08120000E552E7CFD9FF12000F
:08120800000EE66EE66A040E1A
:10121000E66EE66A9FEC06F0E552E552E552E552CD
:10122000010EE66E39EC0CF0E552000EE66EE66A51
:10123000050EE66EE66A9FEC06F0E552E552E552D1
:10124000E552010EE66E39EC0CF0E552000EE66E4A
:10125000E66A060EE66EE66A9FEC06F0E552E55297
:10126000E552E552010EE66E39EC0CF0E552000E47
:10127000E66EE66A030EE66EE66A9FEC06F0E5525D
:10128000E552E552E552010EE66E39EC0CF0E552FE
:10129000000EE66EE66A020EE66EE66A9FEC06F067
:1012A000E552E552E552E552010EE66E39EC0CF0DE
:1012B000E552000EE66EE66A010EE66EE66A9FEC07
:1012C00006F0E552E552E552E552010EE66E39ECC4
:1012D0000CF0E552000EE66EE66AE66AE66A9FECFE
:1012E00006F0E552E552E552E552010EE66E39ECA4
:1012F0000CF0E552000EE66EE66A030EE66EE66A54
:101300009FEC06F0E552E552E552E5521200000E60
:10131000E66EE66A040EE66E010EE66E9FEC06F0DF
:10132000E552E552E552E552010EE66E39EC0CF05D
:10133000E552000EE66EE66A050EE66E010EE66EFA
:101340009FEC06F0E552E552E552E552010EE66EDD
:1013500039EC0CF0E552000EE66EE66A060EE66E1B
:10136000010EE66E9FEC06F0E552E552E552E552BD
:10137000010EE66E39EC0CF0E552000EE66EE66A00
:10138000030EE66E010EE66E9FEC06F0E552E552A6
:10139000E552E552010EE66E39EC0CF0E552000E16
:1013A000E66EE66A020EE66E010EE66E9FEC06F051
:1013B000E552E552E552E552010EE66E39EC0CF0CD
:1013C000E552000EE66EE66A010EE66EE66E9FECF2
:1013D00006F0E552E552E552E552010EE66E39ECB3
:1013E0000CF0E552000EE66EE66AE66A010EE66E65
:1013F0009FEC06F0E552E552E552E552010EE66E2D
:1014000039EC0CF0E552000EE66EE66A030EE66E6D
:10141000010EE66E9FEC06F0E552E552E552E5520C
:021420001200B8
:0E142200D9CFE6FFE1CFD9FF020EE126D38C31
:10143000D38AD3889B8CDE6ADD6ADECF14F0DDCFE1
:1014400015F0D890155004E6F40E145C010E1558F2
:1014500005E2DF2A010EF1E3DB2AEFD7020EE15CA1
:1014600002E2E16AE552E16EE552E7CFD9FF1200F0
:10147000D9CFE6FFE1CFD9FF020EE126D38CD38A84
:10148000D3989B8CDE6ADD6ADECF14F0DDCF15F0D9
:10149000D890155004E6F40E145C010E155805E2C0
:1014A000DF2A010EF1E3DB2AEFD7020EE15C02E254
:1014B000E16AE552E16EE552E7CFD9FF1200D9CFDC
:1014C000E6FFE1CFD9FF020EE126D38CD38AD38881
:1014D000DE6ADD6ADECF14F0DDCF15F0D89015504E
:1014E00004E6F40E145C010E155805E2DF2A010E25
:1014F000F1E3DB2AEFD7020EE15C02E2E16AE5529A
:10150000E16EE552E7CFD9FF1200D9CFE6FFE1CF78
:10151000D9FF020EE126D38CD38AD398DE6ADD6A26
:10152000DECF14F0DDCF15F0D890155004E6F40EA0
:10153000145C010E155805E2DF2A010EF1E3DB2AE7
:10154000EFD7020EE15C02E2E16AE552E16EE5529C
:10155000E7CFD9FF1200D9CFE6FFE1CFD9FF020EC6
:10156000E126D38CD39AD388DE6ADD6ADECF14F00D
:10157000DDCF15F0D890155004E6F40E145C010E82
:10158000155805E2DF2A010EF1E3DB2AEFD7020E40
:10159000E15C02E2E16AE552E16EE552E7CFD9FF94
:1015A0001200D9CFE6FFE1CFD9FF020EE126D38C9E
:1015B000D39AD398DE6ADD6ADECF14F0DDCF15F062
:1015C000D890155004E6F40E145C010E155805E28F
:1015D000DF2A010EF1E3DB2AEFD7020EE15C02E223
:0E15E000E16AE552E16EE552E7CFD9FF120055
:0215EE00150ED8
:1015F000E66EC1EC0FF0E5522BEC06F06A0EE66EDB
:101600001C0EE66E000EE66EEFEC0CF0E552E552B5
:10161000E552040000018A0E996F020E9A6F4BEC9E
:1016200007F0B5EC07F0000180511F0B000A0BE03A
:101630000E0A06E00A0A01E008D09EEC0BF005D085
:101640009EEC0BF002D011D800D09EEC0BF0040001
:10165000000180511F0B000900E151EC10F000095E
:1016600002E0A9EC08F0DBD71200000EE66EE66A95
:10167000A5EC0FF0E552E55286EC0FF0F3CF14F035
:10168000F4CF15F0166AD8901650000A06E6400E00
:10169000145C9C0E1558000E16581DE20001805176
:1016A0001F0B000918E1000EE66EE66A050EE66EF5
:1016B000E66A9FEC06F0E552E552E552E552000E6F
:1016C000E66EE66A050EE66E010EE66E9FEC06F02B
:1016D000E552E552CFD786EC0FF0F3CF14F0F4CFFC
:1016E00015F0166A1634000E161807E6D880400E5C
:1016F00014549C0E1554000E16541FE20001805124
:101700001F0B00091AE1000EE66EE66A020EE66E95
:10171000E66A9FEC06F0E552E552E552E552000E0E
:10172000E66EE66A020EE66E010EE66E9FEC06F0CD
:0C173000E552E552E552E552E1D7120007
:04173C00000180A583
:1017400002D04AD80ED080A902D013D80AD080A7E0
:1017500002D028D806D080A302D071D802D080B1A0
:1017600055D8000180511F0B000902E120EC07F061
:101770001200000EE66EE66AE66AE66A9FEC06F084
:10178000E552E552E552E552000EE66EE66A050EB8
:10179000E66E010EE66E9FEC06F0E552E552E5526C
:1017A000E5521200000EE66EE66A030EE66EE66A89
:1017B0009FEC06F0E552E552E552E552000EE66E6A
:1017C000E66A060EE66E010EE66E9FEC06F0E55246
:1017D000E552E552E5521200000EE66EE66A050E8D
:1017E000E66EE66A9FEC06F0E552E552E552E552F8
:1017F000000EE66EE66A050EE66E010EE66E9FECE2
:1018000006F0E552E552E552E5521200000EE66E92
:10181000E66A060EE66EE66A9FEC06F0E552E552D1
:10182000E552E552000EE66EE66AE66A010EE66EE5
:101830009FEC06F0E552E552E552E5521200000E2B
:10184000E66EE66A060EE66EE66A9FEC06F0E55284
:10185000E552E552E552000EE66EE66A030EE66ECC
:10186000010EE66E9FEC06F0E552E552E552E552B8
:02187000120064
:0E187200D9CFE6FFE1CFD9FFE652DF6AFE0EC6
:10188000DB50DF5C16E2C80EE66E10EC10F0E5529D
:10189000C80EE66E10EC10F0E552C80EE66E10ECC5
:1018A00010F0E552C80EE66E10EC10F0E552DF2A9B
:1018B000E6D7E552E552E7CFD9FF1200D9CFE6FFD0
:1018C000E1CFD9FFE652DF6AFE0EDB50DF5C07E2B4
:1018D000500EE66E10EC10F0E552DF2AF5D7E55217
:1018E000E552E7CFD9FF1200D9CFE6FFE1CFD9FF0C
:1018F000E652DF6AFE0EDB50DF5C07E2080EE66EA2
:1019000010EC10F0E552DF2AF5D7E552E552E7CFAB
:10191000D9FF1200D9CFE6FFE1CFD9FFE652DF6A47
:10192000FE0EDB50DF5C07E2080EE66E66EC10F0A0
:10193000E552DF2AF5D7E552E552E7CFD9FF12008D
:101940000E0EF66E000EF76E000EF86E0001090026
:10195000F550946F0900F550956F03E1946701D03D
:101960003DD00900F5508F6F0900F550906F0900C8
:10197000F550916F09000900F550E96E0900F55026
:10198000EA6E090009000900F550926F0900F55050
:10199000936F09000900F6CF96F0F7CF97F0F8CFD4
:1019A00098F08FC0F6FF90C0F7FF91C0F8FF0001DC
:1019B000925302E1935307E00900F550EE6E92074F
:1019C000F8E29307F9D796C0F6FF97C0F7FF98C0E3
:0E19D000F8FF00019407000E955BBFD71200D0
:0219DE00D9CF5F
:1019E000E6FFDACFE6FFE1CFD9FFE2CFDAFFE6523A
:1019F000E652E652E652D950FB0F146EFF0EDA2083
:101A0000156E14C0DEFFDD6EDECFE6FFDDCFE6FF34
:101A1000FB0EDBCFE6FFFC0EDBCFE6FFFD0EDBCFE0
:101A2000E6FF9BC0E6FF9CC0E6FF30EC00F0146EC2
:101A3000070EE15C02E2E16AE552E16E1450020E2B
:101A4000F3CFDBFF030EF4CFDBFF020EDBCF14F08E
:101A5000030EDBCF15F014C0F3FF15C0F4FF040E26
:101A6000E15C02E2E16AE552E16EE552E5CFDAFFC0
:061A7000E7CFD9FF1200D0
:0A1A7600D9CFE6FFDACFE6FFE1CF9B
:101A8000D9FFE2CFDAFFAC6AAB6AFD0EDBB0AC88FF
:101A9000DBA202D0AC8CAB8CDBB4AC8EDBA602D06C
:101AA000AB8801D0AB8ADBB8AC849E98DBBAAB863E
:101AB000DBAC02D09D8A01D09D9A9E9ADBAE02D00B
:101AC0009D8801D09D98FB0EDB50AF6EFB0EFC0E87
:101AD000DBCF15F015C014F0156A1450B06EAC8A47
:101AE000AB8E949C948EAC50100B04E0AC50800BE9
:101AF00001E1948CE552E5CFDAFFE7CFD9FF120080
:101B0000D9CFE6FFDACFE6FFE1CFD9FFE2CFDAFFA8
:101B1000FB0EDBCF14F0FC0EDBCF15F00001800EC6
:101B200015141AE1FB0EDBCFE9FFFC0EDBCFEAFF59
:101B3000EECFF3FFEDCFF4FFEE2A000EEF22F3CF4E
:101B4000E9FFF4CFEAFFFD0EDBCFEFFFEF50156AA0
:101B5000F36E15C0F4FF10D0FB0EDB50FE0806E15B
:101B6000FD0EDBCFE6FF94EC10F005D0FD0EDBCFD1
:101B7000E6FF03EC00F0E552E552E5CFDAFFE7CFF0
:041B8000D9FF120077
:0C1B8400D9CFE6FFDACFE6FFE1CFD9FFB2
:101B9000E2CFDAFFE652E652E652E652F8CF02F022
:101BA000F6CF03F00C0EBA6E050EF66EF76A300E25
:101BB000F86E0800F550010B03E0010EDB6802D05F
:101BC000010EDB6A010EDB5002E0949201D0939685
:101BD000CA94FD0EDB50CB6ECA8402C0F8FF03C06E
:101BE000F6FF040EE15C02E2E16AE552E16EE552C5
:0A1BF000E5CFDAFFE7CFD9FF1200BE
:061BFA0006500B02F3CFC0
:101C000002F0F4CF03F00C02F3500326000EF42090
:101C1000046E06500D02F3500426000EF420056EEB
:101C200006500E02F350052607500B02F350032610
:101C3000F4500422000E052207500C02F350042633
:101C4000F450052207500D02F350052608500B02F0
:101C5000F3500426F450052208500C02F3500526D8
:0A1C600009500B02F3500526120094
:061C6A000A0D4B77616ECC
:101C7000746C656E20415053433132393920736999
:101C80006D706C6520637572766520666F6C6C6F25
:101C9000776572202D2D2077697468206572726FC8
:101CA0007220636F6465730A0D005C3C4C56443EC1
:101CB00000203C72657365743E20003C53544B46D3
:101CC000554C3E003C57445420544F3E003C424F3C
:091CD000523E003C504F523E0010
:011CD900000A
:061CDA00D9CFE6FFDACFCE
:101CE000E6FFE1CFD9FFE2CFDAFFC26AC06AFC0E9D
:101CF000DB407F0B3C0BC26EFC0EDB38F00B300B75
:101D0000146EFB0EDB500F0B1410C16EFD0EDB507A
:101D1000040DF350380B156EFD0EDB380F0B070B5F
:101D2000146EFD0EDB50800B14101510C06EFC0EEF
:101D3000DBAE03D09E9C9D8CF28CC280E552E5CF39
:081D4000DAFFE7CFD9FF120022
:081D4800FE0EE3CFE9FFFF0EE0
:101D5000E3CFEAFFF36AF46AEE5203E0F34AF42AAF
:101D6000FBD71200FF0EE3CFF8FFE552FF0EE3CFE3
:101D7000F7FFE552FF0EE3CFF6FFE552E66AE66AAB
:101D8000E66A0900F55209E0FD0EE32A05E1FE0EC0
:101D9000E32A02E1FF0EE32AF4D7FD0EE3CF07F0BA
:0E1DA000FE0EE3CF08F0FF0EE3CF09F01200B5
:021DAE00D9CF8B
:101DB000E6FFDACFE6FFE1CFD9FFE2CFDAFFE65266
:101DC000E652FC0EDBCF14F0FD0EDBCF15F0060E55
:101DD000D89014361536E804FBE114C0DEFF15C0B8
:101DE000DDFF010EDB50BB6EDF50E840E8403F0BEB
:101DF000300B146ECF0EBA141410BA6EE552E552C1
:0C1E0000E552E5CFDAFFE7CFD9FF120072
:041E0C00D9CFE6FF45
:101E1000DACFE6FFE1CFD9FFE2CFDAFFE652E652B2
:101E2000FC0EDBCF14F0FD0EDBCF15F0060ED890C4
:101E300014361536E804FBE114C0DEFF15C0DDFFE3
:101E4000010EDB50BE6EDF50E840E8403F0B300B28
:101E5000146ECF0EBD141410BD6EE552E552E5525E
:0A1E6000E5CFDAFFE7CFD9FF12004B
:061E6A0009C013F008C0DE
:101E700012F008500D02F4CF07F0F3CF06F009502E
:101E80000E02F4CF09F0F3CF08F00D02F35007264D
:101E9000F4500822E86A092212500E02F350072675
:101EA000F4500822E86A09220EAE5BEF0FF01250E0
:101EB000085E1350095A13AE000C0D50085E0E5008
:041EC000095A000CAF
:0C1EC400056A046A036A026A200EE76ED9
:101ED000D8900636073608360936023603360436F9
:101EE00005360B50025C0C5003580D5004580E5030
:101EF000055809E30B50025E0C50035A0D50045A6A
:0C1F00000E50055A062AE72EE4D7120006
:041F0C00D9CFE6FF44
:101F1000DACFE6FFE1CFD9FFE2CFDAFFE652E652B1
:101F2000D650DF6E010ED7CFDBFFDECF14F0DDCF52
:101F300015F014C0F3FF15C0F4FFE552E552E55269
:0A1F4000E5CFDAFFE7CFD9FF12006A
:061F4A00D9CFE6FFDACF5B
:101F5000E6FFE1CFD9FFE2CFDAFFE652E652FC0E10
:101F6000DBCFDEFFDBCFDDFF010EDB50D76EDF50B6
:101F7000D66EE552E552E552E5CFDAFFE7CFD9FF5D
:021F800012004D
:0E1F8200D9CFE6FFDACFE6FFE1CFD9FFE2CFFD
:101F9000DAFFFD0EDB507F0BD56ED76AD66AF2945E
:101FA000FD0EDBAE02D0F28A01D0F29AD58EE55258
:0A1FB000E5CFDAFFE7CFD9FF1200FA
:061FBA00D9CFE6FFDACFEB
:101FC000E6FFE1CFD9FFE2CFDAFFFD0EDB50FB0BDE
:101FD000CA6ECC6A9E92FD0EDBAE02D09D8201D00D
:101FE0009D92CA84E552E5CFDAFFE7CFD9FF120010
:101FF000D9CFE6FFDACFE6FFE1CFD9FFE2CFDAFFB4
:102000000C0EBD129494CA94FD0EDB50CB6ECA84A4
:10201000E552E5CFDAFFE7CFD9FF12009494120022
:10202000FF0EE3501C6EEF0E01D0F30EE76EE72EAD
:1020300017EF10F00C0E1B6EE76AE72E1DEF10F085
:0E2040001B2E1CEF10F01C2E15EF10F01200DE
:02204E00D9CFE8
:10205000E6FFDACFE6FFE1CFD9FFE2CFDAFFC30E2A
:10206000C214146EFD0EDB407F0B3C0B1410C26ECD
:0C207000E552E5CFDAFFE7CFD9FF120000
:04207C00DACFE4FFD4
:10208000E652A1949268936894689568030E966EE0
:102090000001010E9D6FA094D298E552E5CFDAFFC2
:0820A000110000019D51120026
:0820A800F36AF46AFF0EE12463
:1020B000E96EFF0EE220EA6EED6607D02F0EEF64A8
:0C20C00004D03A0EEF6001D0F32A1200A9
:0420CC00FF0EE350D0
:1020D0001C6E480E01D04C0EE76EE72EFED7E76A65
:0C20E000E72EFED71C2EF7D700001200E0
:0420EC00800EF36E01
:1020F00000EE00F00F0E01D81200EA6002D0EE6A86
:0C210000FCD7F350E9601200EE6AFCD737
:04210C001EEE00F0D3
:102110002EEE00F0F86A019CA0EC0CF0DCEC10F064
:08212000F7EC0AF0FBD71200F6
:08212800FF0EE350ACBA04D035
:10213000AF6AAB8EAC8A949CACA2FED7AD6EF36E48
:04214000F46A12002B
:0C214400D0A209D0D0A406D0D0A003D0B7
:0C215000D0B6000C010C000C000C000CC0
:04215C00D0B209D024
:10216000D0A406D0D0B003D0D0A6000C010C000C37
:04217000000C000C53
:0C217400C450176E166AC3501610F36EAC
:0621800017C0F4FF12007D
:0A2186003031323334353637383942
:0721900061626364656600F3
:08219800D0B003D0D0A2000C6E
:0421A000010C000C22
:0A21A400C250020B01E0010E120010
:0221AE00D082DD
:0421B000D0801200C9
:0421B400C2821200D1
:0221B800120013
:0621BA0000E0FCA8FD702E
:0921C000FE00009001580220030A
:0221C900FEFF17
:020000040030CA
:0100010008F6
:0100020003FA
:0100030006F6
:0100050003F7
:010006008178
:00000001FF
